:020000040000FA
:1000000000800220CD040000D5040000D7040000C9
:10001000D9040000DB040000DD0400000000000043
:10002000FFFFFFFF000000000000000015040000BB
:10003000E104000000000000690400009D280000A9
:10004000E7040000EB040000EF040000F3040000EC
:10005000F7040000FB040000FF040000030500009B
:10006000070500000B0500000F0500001305000048
:10007000170500001B050000E52000002305000017
:10008000270500002B0500002F05000033050000A8
:10009000370500003B0500003F0500004305000058
:1000A000470500004B0500004F0500005305000008
:1000B000570500005B0500005F05000063050000B8
:1000C000670500006B0500006F0500007305000068
:1000D000770500007B0500007F0500008305000018
:1000E000870500008B0500008F05000093050000C8
:1000F000970500009B0500009F050000A305000078
:10010000A7050000AB050000AF050000B305000027
:10011000B7050000BB050000BF050000C3050000D7
:10012000C705000000000000000000000000000003
:1001300000000000000000000000000000000000BF
:1001400000000000000000000000000000000000AF
:10015000000000000000000000000000000000009F
:10016000000000000000000000000000000000008F
:10040000DFF80CD000F084F900480047752D00009B
:10041000008002202A4B19680868B0E8F04F80F38A
:100420000988BFF36F8F4FF0000080F31188704789
:100430000000000006480068006880F3088862B683
:1004400061B6BFF34F8FBFF36F8F00DF00BF00BFF8
:1004500008ED00E0DFF80C00016841F47001016074
:10046000704700BF88ED00E0EFF30980BFF36F8FA6
:10047000134B1A681EF0100F08BF20ED108A20E9F8
:10048000F04F106008B44FF0200080F31188BFF3E4
:100490004F8FBFF36F8F03F08BFE4FF0000080F3A0
:1004A000118808BC19680868B0E8F04F1EF0100FFA
:1004B00008BFB0EC108A80F30988BFF36F8F7047D4
:1004C00050010020EFF30580704700003F4880474F
:1004D0003F480047FEE7FEE7FEE7FEE7FEE7FEE7F0
:1004E000FEE7FEE7FEE73B4800473B4800473B4846
:1004F00000473B4800473B4800473B4800473B48D4
:1005000000473B4800473B4800473B4800473B48C3
:1005100000473B4800473B4800473B4800473B48B3
:1005200000473B4800473B4800473B4800473B48A3
:1005300000473B4800473B4800473B4800473B4893
:1005400000473B4800473B4800473B4800473B4883
:1005500000473B4800473B4800473B4800473B4873
:1005600000473B4800473B4800473B4800473B4863
:1005700000473B4800473B4800473B4800473B4853
:1005800000473B4800473B4800473B4800473B4843
:1005900000473B4800473B4800473B4800473B4833
:1005A00000473B4800473B4800473B4800473B4823
:1005B00000473B4800473B4800473B4800473B4813
:1005C00000473B4800473B480047FEE7D128000072
:1005D00001040000CB050000CB050000CB050000A6
:1005E000CB050000CB050000CB050000CB050000CB
:1005F000CB050000CB050000CB050000CB050000BB
:10060000CB050000CB050000CB05000081200000D9
:100610007D210000E121000045220000A922000008
:100620000D23000071230000D5230000CB0500003E
:10063000CB050000CB050000CB050000CB0500007A
:10064000CB050000CB050000CB050000CB0500006A
:10065000CB050000CB050000CB050000CB0500005A
:10066000CB050000CB050000CB050000CB0500004A
:10067000CB050000392400009D240000CB050000BC
:100680006D0A0000CB050000850A0000CB050000C4
:10069000CB050000CB050000CB050000CB0500001A
:1006A000CB050000CB050000CB050000CB0500000A
:1006B000CB050000CB05000040EA01039B0703D0F7
:1006C00009E008C9121F08C0042AFAD203E011F891
:1006D000013B00F8013B521EF9D27047D2B201E053
:1006E00000F8012B491EFBD270470022F6E710B537
:1006F00013460A4604461946FFF7F0FF204610BD90
:10070000421C10F8011B0029FBD1801A7047000021
:10071000064C074D06E0E06840F0010394E807004E
:1007200098471034AC42F6D3FFF76EFEBC4F000082
:10073000DC4F000070B58C1810F8015B15F0070352
:1007400001D110F8013B2A1106D110F8012B03E06A
:1007500010F8016B01F8016B5B1EF9D12B0705D472
:100760000023521E0DD401F8013BFAE710F8013BBB
:10077000CB1A921C03E013F8015B01F8015B521ED7
:10078000F9D5A142D8D3002070BD000000B587B0D4
:10079000042001F091FF124800F0AEFD114801F075
:1007A000AFFF104801F0D6F91C220F496846FFF749
:1007B00083FF4FF4017000F09FFD684601F018FAC6
:1007C0000A4801F09DFF094801F0C4F940F20130E8
:1007D00000F092FD05480649086007B000BD000022
:1007E00000111000001BB700A04F00000095BA0ACE
:1007F0000000002000B587B001A800F093F9184868
:1008000003901848019018480490184801A90268FC
:10081000174800F0B1F9154801A90268154800F021
:10082000ABF9154A0021124800F0CFFB134A012111
:100830000F4800F0CAFB124A02210E4800F0C5FB27
:100840000123104A03210B4800F0AEFB01210848A8
:1008500000F04DF90121074800F049F907B000BD4B
:100860000000012020A10700A08601000000002058
:1008700000D0094000E0094000000E3A00001B3A99
:1008800000000239000200E070B54FF4867000F0FD
:1008900033FD0C4801F0B8FF192000F087FE054633
:1008A0002B4605224FF4E131074801F05FFA044678
:1008B00004B904E0532205A109A002F029FA204658
:1008C00070BD00000B000100006008402E2E5C622D
:1008D0006F6172645C626F6172642E63000000007D
:1008E0006B5374617475735F5375636365737320C1
:1008F0003D3D20726573756C7400000010B5124B9D
:100900000E220321114801F08CFE01230E22032147
:100910000E4801F0B0FE0C4B032211460B4801F0CB
:1009200080FE012303221146084801F0A4FE064B75
:1009300002221146054801F074FE012302221146ED
:10094000024801F098FE10BD0A01002000C00840D6
:100950002DE9FF5F0D20010A032905D20122824003
:100960003F4B43F8212005E001229307DA648240DF
:100970003C4B5A6100BF4FF4447423461D220021B2
:10098000394801F07DFE254623461D2200213648C8
:1009900001F076FE264623461D220021324801F052
:1009A0006FFE40F201373B461D2200212E4801F028
:1009B00067FEB8463B461E2200212B4801F060FE30
:1009C0004FF448794B4604220021274801F058FE95
:1009D000CA464B4605220021234801F051FECB4672
:1009E0004B4606220021204801F04AFE484603906B
:1009F0000346022211461C4801F042FE484602907E
:100A000003460E220321184801F03AFE48460190A1
:100A1000034603221146144801F032FE4846009076
:100A2000034601221146104801F02AFEFB1C122247
:100A300003210D4801F024FEFB1C132203210A4868
:100A400001F01EFE3B1D11220121074801F018FE96
:100A50003B1D12220121044801F012FEBDE8FF9F58
:100A600020020040000004400010004010B5034880
:100A70000168034800F03AFB10BD000004000020AC
:100A800000D0094010B503484168034800F02EFB30
:100A900010BD00000400002000E0094001460829C4
:100AA00001DC08467047092901D10C20FAE70A2920
:100AB00001D11020F6E70B2901D11420F2E70C290F
:100AC00001D11820EEE70D2901D12020EAE70E29F7
:100AD00001D13020E6E74020E4E7426D8A434265D9
:100AE0007047D0F8E0208A43C0F8E020704751B149
:100AF000826922F00302826100BF826902F0010272
:100B0000002AFAD109E0826942F00102826100BF45
:100B1000826902F00102002AFAD07047426D0A434E
:100B20004265704710B5044618212046FFF7DDFDE9
:100B300007482060002060600648A0600020E06058
:100B40000120207460740020A074E074207510BD32
:100B500048E80100000001200146002006E0054AA7
:100B600052F820208A4200D102E0401C0228F6D32D
:100B700000BF7047D84E00002DE9FF4104460D46E6
:100B8000904600207D4908802046FFF7E5FF10B120
:100B900001281DD10DE040F2071000F0D3FB78488A
:100BA00001F032FE2B2001F071FD2C2001F06EFDD2
:100BB0000EE04FF4847000F0C5FB7148401C01F05A
:100BC00023FE2D2001F062FD2E2001F05FFD00BF0D
:100BD00000BFA06940F00200A061A06940F400706D
:100BE000A061287D18B9A06940F48070A06100263A
:100BF00003E0002063498855761C022EF9DB0020B3
:100C0000C4F8A000C4F8B00003208DF8000006204E
:100C1000ADF8020004208DF8040010208DF80500C6
:100C200003208DF8060000208DF8070001208DF8C4
:100C3000080004208DF8090009208DF80A00022020
:100C40008DF80B0000208DF80C006946204600F05E
:100C5000CBF98034A868C4F880014848008840F483
:100C600000006060D4F88011444A128888184FF45C
:100C70000071FFF73AFD4148008800F500703F49D8
:100C800008800846008840F48000A060D4F88011F5
:100C90003A4A128888184FF40071FFF726FD37484A
:100CA000008800F50070354908800846008800F586
:100CB00000102064402000F067F8A064D4F8801190
:100CC0002E4A128888184FF41061FFF70EFD2B484A
:100CD000008800F510602949088008460088E06215
:100CE000402000F051F80002E063D4F88011234A5C
:100CF000128888184FF49051FFF7F7FC1F480088BE
:100D000000F590501D4908803C2044F88009287C5B
:100D100028B1D4F8800040F00200C4F88000687C5C
:100D200028B1D4F8800040F00100C4F88000002011
:100D3000A0650120E065A87C38B1A06940F0800082
:100D4000A061206940F010002061E87C18B1A06922
:100D500040F40040A061E86870B102202062E868B9
:100D6000B8FBF0F7B7F5006F01DD4FF40067781EB0
:100D700040F00040C4F80004BDE8FF810C000020F2
:100D8000070001000E0000200146082901DC0020B8
:100D900070470C2901DC0120FAE7102901DC022050
:100DA000F6E7142901DC0320F2E7182901DC04200E
:100DB000EEE7202901DC0520EAE7302901DC0620E6
:100DC000E6E70720E4E72DE9FC5F04460E4693467C
:100DD00001200090022E36DA46B904F1A40504F190
:100DE000A00804F1A8094FF0030A07E004F1B405D4
:100DF00004F1B00804F1B8094FF0070A286800F0C0
:100E00007F0000B32868C0F30527D4F80002D8F8A3
:100E1000001089B2084407EBC70100EBC100019044
:100E20005946019800F055F8C9F80070286800F09C
:100E3000007030B1012000FA0AF020650F20009008
:100E400001E0002000900098BDE8FC9F2DE9F047EC
:100E500004460D4616464FF001084FF00009402D9C
:100E600034DA202D05DAD4F89800E84000F00109C2
:100E700006E0D4F89C00A5F12001C84000F001096B
:100E8000B9F1000F22D0D4F80002D4F8AC1089B226
:100E9000084405EBC50100EBC1073146384600F0B8
:100EA00018F8202D07DAD4F898000121A94008434A
:100EB000C4F8980008E0D4F89C00A5F120010122B4
:100EC0008A401043C4F89C004FF000084046BDE83B
:100ED000F08770B505460C46286800F0804058B190
:100EE0002868616860F31C016160206820F48070EC
:100EF00000F5807020600AE02868C0F38A416068CD
:100F000061F31C006060206820F4807020606868D5
:100F100000F4001030B1206820F4007000F500707B
:100F2000206003E0206820F400702060686800F40E
:100F3000801030B1206820F4806000F5806020606F
:100F400003E0206820F480602060A8886080286822
:100F500000F0005028B1206820F080008030206030
:100F600003E0206820F0800020606968C1F303403E
:100F7000FFF794FD216860F306012160002608E078
:100F800005F1080050F8261004F1080040F826107A
:100F9000761C217801F07F01C81CC11700EB91710C
:100FA000B6EBA10FECDB70BD70B51446402900DB39
:100FB00070BDD0F80052D0F88860B6B2354405EB69
:100FC000C1021460536000BFF2E730B5802900DB36
:100FD00030BDD0F80042D0F88450ADB22C4404EBC0
:100FE00081031A6000BFF3E770B505460C46A86997
:100FF00040F00200A8612846FFF7AEFD10B10128BD
:101000000BD104E02078401E1D49086005E02078DF
:10101000401E1B49091D086000BF00BF2079401E0B
:1010200041066088C0F30800401E01EB0041607972
:10103000E2791044C0B2401E01EB0021A07900F01B
:101040007F00401E0844E86105F10C06A07A217B70
:10105000084400F01F00401E0102207A00F01F002B
:10106000401E01EB0041E07A00F00F00401E01EB52
:101070000011607A00F00F00401E0844306070BD1F
:101080000803004070B506460C4615464FF4002193
:101090003046FFF722FD002104F58870415570BDF0
:1010A00070B506460C461546022C0FDA24B901210C
:1010B0003046FFF712FD05E0012C03D10121304637
:1010C000FFF70BFD002105F5B870015570BD70B537
:1010D00006460D461446012000FA04F13046FFF79B
:1010E00000FD002105F5A870015570BD2DE9F843FC
:1010F00006460D4615270024F4E0306D00F06070C0
:1011000020B114274FF060703065EAE0306D00F4D4
:10111000007000284AD0002442E0D6F8D800E04011
:1011200000F00100002839D005F5A870005DA8B3D3
:1011300005F5A870005D032802D004281BD107E044
:101140000B27224629463046FFF7C1FFA04619E08B
:10115000224629463046FFF7BAFF002105F5A87060
:1011600001550221403801550C27A046890430461C
:10117000FFF7D4FC06E01527224629463046FFF744
:10118000A6FF00BF00BF286840B1686800904346D2
:101190003A4629463046D5F800C0E047601CC4B244
:1011A000202CBADB4FF4007030659AE0306D00F40B
:1011B000002000284ED0002414E0202C05DAD6F8B8
:1011C0009800E04000F0010906E0D6F89C00A4F188
:1011D0002001C84000F00109B9F1000F00D003E080
:1011E000601CC4B2402CE8DB00BF202C00D17FE0A3
:1011F00005F58870005D012802D0022813D100E0B7
:1012000000BF05F1080050F8242021463046FFF7C2
:101210001DFE074607B90E27224629463046FFF72E
:1012200031FFA04606E01527224629463046FFF743
:1012300029FF00BF00BF286840B16868009043469E
:101240003A4629463046D5F800C0E0474FF4002022
:10125000306546E0306D00F00100F8B1002405F57E
:10126000847050F8242021463046FFF7ACFD074635
:1012700007B911272A4621463046FFF711FFA0463D
:10128000286840B16868009043463A46294630468F
:10129000D5F800C0E0470120306522E0306D00F055
:1012A0001000F0B1012405F5847050F82420214687
:1012B0003046FFF788FD074607B911272A46214621
:1012C0003046FFF7EDFEA046286840B16868009000
:1012D00043463A4629463046D5F800C0E04710203C
:1012E00030651527306D716D084000287FF405AF1B
:1012F00000BFBDE8F8830000F0B500240F4D0023C7
:1013000016E003EB4306B600F040C1B270B1C0F383
:101310000326761EF2B21F2905D10126B707FE6407
:10132000074E326203E045F8212000E001245B1CF7
:10133000022B01D8002CE4D0F0BD00008002004058
:1013400000000440010A032905D201228240054B16
:1013500043F8212005E001229307DA648240024B22
:101360005A6170472002004000000440010A03292E
:1013700005D201228240054B43F8212005E00122DD
:101380009307DA648240024B5A61704720020040A2
:101390000000044068B10C49096841F400710A4A30
:1013A0001160111D096841F008020749091D0A6012
:1013B00008E04FF40071044A103A11600822024913
:1013C0000C390A60704700003006004000B5114833
:1013D000006810B900F05CFA00BD0E4800680128F2
:1013E00002D100F0BDFAF7E70A480068022802D1EE
:1013F00000F07EFBF0E707480068032802D100F008
:1014000023F8E9E703480068072801D10020E3E753
:101410000020E1E7A402004010B500BF0849096AB6
:1014200001F003010C4614B1012C05D102E000F0DB
:101430004DF803E0034801E0002000BF00BF10BDED
:1014400000000440001BB70001480068704700001E
:101450001800002000B51C48006810B900F036F8EC
:1014600000BD19480068012802D100F06DF8F7E7C7
:1014700015480068022802D100F040FBF0E712484E
:101480000068032802D100F003FAE9E70E4800687B
:10149000042802D100F064FAE2E70B48006805284E
:1014A00002D100F025FBDBE707480068062802D1DF
:1014B000FFF7CAFFD4E704480068072802D100F00C
:1014C0004BFACDE70020CBE78802004000B51D486D
:1014D000006830B91B48001F006810B900F0CAF955
:1014E00000BD1848006838B91648001F0068012878
:1014F00002D100F029F8F3E71248006838B9114822
:10150000001F0068022802D100F0F8FAE8E70D4851
:10151000006838B90B48001F0068032802D100F0AA
:10152000B7F9DDE707480068022802D100F018FA91
:10153000D6E704480068032802D100F00DFACFE78F
:101540000020CDE78402004000487047001BB70030
:1015500010B50446144850F8240010B900F08AF978
:1015600010BD114850F82400012802D100F090F974
:10157000F6E70D4850F82400022802D100F0F0F9F7
:10158000EEE7094850F82400032802D100F0A0F942
:10159000E6E7054850F82400042803D1152000F0A0
:1015A00005F8DDE70020DBE7B002004070B5054636
:1015B000232D70D2DFE805F012161F5B29333D475B
:1015C0006F51CFD9F2F0EFEE5F63676F6B7092CB24
:1015D000EDECEBEAE9E8E7E6E5E4E300FFF776FFA8
:1015E000044642E1FFF772FFA1490968C9B2491CEC
:1015F000B0FBF1F439E1FFF72DFF9D49091D0968A2
:10160000C9B2491CB0FBF1F42FE100F003FA98498C
:1016100010310968C9B2491CB0FBF1F425E1FFF7AC
:10162000D5FE934914310968C9B2491CB0FBF1F4E5
:101630001BE100F01DFA8E4918310968C9B2491C36
:10164000B0FBF1F411E100F033FA89491C3109686B
:10165000C9B2491CB0FBF1F407E100F05DF984491F
:101660002C310968C9B2491CB0FBF1F4FDE000F06F
:101670000FF90446F9E000F0FDF80446F5E0FFF745
:1016800063FF0446F1E000F06BF90446EDE000F082
:1016900035FA0446E9E0E6E075489838006810B984
:1016A000FFF714FF18E0724898380068012802D14B
:1016B00000F056F910E06E4898380068022802D110
:1016C00000F0D8F808E06A4898380068032802D18A
:1016D00000F0DEF800E000200446C6E064489438DC
:1016E000006810B900F0C6F828E061489438006836
:1016F000012802D100F0CCF820E05D489438006861
:10170000022802D100F02CF918E0594894380068FA
:10171000032802D100F0DCF810E055489438006846
:10172000042802D1FFF7D2FE08E05148943800683F
:10173000052802D100F0E2F900E0002004464C4800
:1017400028300068C0B2401CB4FBF0F48DE0FFF715
:1017500063FE044689E000F009F94549343109681F
:10176000C9B2491CB0FBF1F47FE000F025F9404913
:101770003C310968C9B2491CB0FBF1F475E06DE079
:1017800067E061E05BE055E04FE049E043E03DE0C9
:1017900037E032E027E01CE011E0FFE7FFF796FEBC
:1017A00033490968C9B2491CB0FBF1F14FF08040E0
:1017B000D0F8B803C0B2401CB1FBF0F455E000F023
:1017C00089F82B4930310968C9B2491CB0FBF1F4E2
:1017D0004BE0FFF77BFE264978390968C9B2491CFE
:1017E000B0FBF1F441E0FFF771FE2149743909685B
:1017F000C9B2491CB0FBF1F437E000F069F80446C7
:1018000033E00020FFF7A4FE04462EE00120FFF79E
:101810009FFE044629E00220FFF79AFE044624E0DA
:101820000320FFF795FE04461FE00420FFF790FE1B
:1018300004461AE00520FFF78BFE044615E006205B
:10184000FFF786FE044610E00720FFF781FE0446FE
:101850000BE00820FFF77CFE044606E00920FFF7B6
:1018600077FE044601E0002400BF00BF204670BDA3
:10187000800300400448006800F0100008B1002018
:1018800070470248FCE7000010060040001BB7004C
:101890000B48006800F0100008B1002070470948AC
:1018A000006800F0804008B90020F7E705480068AC
:1018B00000F4804008B10448F0E70448EEE7000077
:1018C000100600400005004000D8B805006CDC029E
:1018D0000020704700B50E48006810B9FFF7F6FD0C
:1018E00000BD0B480068012802D100F013F8F7E7AB
:1018F00007480068022802D1FFF7CAFFF0E7044852
:101900000068032801D10020EAE70020E8E7000092
:10191000F40200400020704700B50E48006848B946
:10192000FFF7B6FF0B49A8310968C9B2491CB0FBE3
:10193000F1F000BD07480068012802D1FFF784FDDF
:10194000F7E704480068072801D10020F1E70020EC
:10195000EFE70000E00200404FF400407047000055
:1019600001480068704700001000002000B51148D1
:10197000006810B9FFF7AAFD00BD0E4800680128F5
:1019800002D1FFF7EDFFF7E70A480068022802D10D
:10199000FFF77EFFF0E707480068032802D1FFF752
:1019A00053FDE9E703480068072801D10020E3E779
:1019B0000020E1E7F002004000B51548006810B9CA
:1019C000FFF784FD00BD12480068012802D1FFF72F
:1019D000C7FFF7E70E480068022802D100F088F838
:1019E000F0E70B480068032802D1FFF751FFE9E751
:1019F00007480068042802D1FFF726FDE2E7044803
:101A00000068072801D10020DCE70020DAE70000A9
:101A1000F802004000B51548006810B9FFF756FD00
:101A200000BD12480068012802D1FFF799FFF7E7CF
:101A30000E480068022802D100F05AF8F0E70B487F
:101A40000068032802D1FFF723FFE9E70748006891
:101A5000042802D1FFF7F8FCE2E7044800680728F1
:101A600001D10020DCE70020DAE70000A0020040FE
:101A700000B50E48006810B9FFF70AFF00BD0B481B
:101A80000068012802D1FFF76BFFF7E707480068FD
:101A9000022802D100F02CF8F0E70448006807287B
:101AA00001D10020EAE70020E8E70000A80200409A
:101AB00000B50E48006810B9FFF708FD00BD0B48DF
:101AC0000068012802D1FFF74BFFF7E707480068DD
:101AD000022802D100F00CF8F0E70448006807285B
:101AE00001D10020EAE70020E8E70000AC02004056
:101AF0000148006870470000140000200C4800688E
:101B000000F4801008B1002070470A48006800F017
:101B10001F00401C410007480068C0F34410064BFA
:101B20001A5C4CF250305043B0FBF1F0ECE700008F
:101B30001006004008050040EC4E0000044A126800
:101B400022F4704141EA0032014B1A6070470000F4
:101B50000004004010B504461D48844203D800200C
:101B6000FFF7ECFF33E01B48844203D80120FFF766
:101B7000E5FF2CE01848844203D80220FFF7DEFF7F
:101B800025E01648844203D80320FFF7D7FF1EE064
:101B90001348844203D80420FFF7D0FF17E0114810
:101BA000844203D80520FFF7C9FF10E00E488442A5
:101BB00003D80620FFF7C2FF09E00C48844203D88F
:101BC0000720FFF7BBFF02E00820FFF7B7FF10BDBB
:101BD000001BB70000366E010051250200879303F9
:101BE00000D8B805000E270700449508007A030ABC
:101BF000F8B504462F48006800F00700012801D11D
:101C0000FFF7C8FB00F06CFD162000F05FFD2A49CD
:101C1000206808602849083160680860606840F4FE
:101C200080600860091DA0680860A06840F080001E
:101C30000860091DE0680860E06840F40030086052
:101C4000207E00F0030018B31C4D0846006820F405
:101C5000003608460560162000F024FD45F40030EB
:101C60001549103108600020009002E00098401CE7
:101C700000900098AC28F9D30F481030066046F465
:101C800000300D4910310860162000F00BFD00BF38
:101C9000207E00F0020040B100BF00BF0648001DDA
:101CA000006800F001000028F7D0054920690860AD
:101CB0000020F8BD9002004080050040D25D040085
:101CC000100000202DE9F04F07468C469146002079
:101CD0003946834601F801BBB9F1000F1ED0DCF88C
:101CE000004034B94FF0300B81F800B0401CBDE823
:101CF000F08F10E094FBF3F808FB1345002D05DA94
:101D00002A466FEA020B0BF1310500E030354446FC
:101D100001F8015B401C002CECD125E0DCF80060F0
:101D20002EB94FF0300B81F800B0401CDFE719E00E
:101D3000B6FBF3FA0AFB13620A2A01D230320DE035
:101D4000A2F10A0BDDF824E0BEF1000F02D04FF043
:101D5000410E01E04FF0610E0BEB0E02564601F80A
:101D6000012B401C002EE3D100BFC0E7FEB50546A5
:101D70000E4614461F461048007808B10120FEBDEB
:101D80000D480470052C11D14560684600F0B8FD7F
:101D9000009609493A464868694600F0DDFD074863
:101DA0000549886006490448C16001E00420E6E76F
:101DB00000BF0020E3E70000D8020020792C0000DB
:101DC000912A00000FB438B50948007820B94FF0C7
:101DD000FF3038BC5DF814FB05A800900548009A58
:101DE000049900F009F80446002000902046F0E72E
:101DF000D80200205D2000002DE9F74F92B0064682
:101E00008B464FF00008C1460020079003900190D8
:101E10005D4606E1252C05D02046B0470798401CBA
:101E20000790FDE04FF0010A00200690089012E0B4
:101E3000681C05460478302C0ADB392C08DCA4F138
:101E40003000069901EB810100EB4100069002E0B1
:101E50006D1E0120089008980028E9D00620059002
:101E6000681C054600782E281AD10020059008909D
:101E700012E0681C05460478302C0ADB392C08DC9B
:101E8000A4F13000059901EB810100EB41000590C0
:101E900002E06D1E0120089008980028E9D000E0BB
:101EA0006D1E681C05460478642C11D0692C0FD077
:101EB000662C0DD0462C0BD0782C09D0582C07D08E
:101EC0006F2C05D0622C03D0702C01D0752C77D1EB
:101ED000642C01D0692C11D11498006802901498D8
:101EE000001D14900A23012202A909A8CDF800A020
:101EF000FFF7E8FE814609A800EB0908582C01D03D
:101F0000782C15D1782C01D14FF0000A1498006874
:101F100001901498001D14901023002201A909A813
:101F2000CDF800A0FFF7CEFE814609A800EB090816
:101F30006F2C05D0622C03D0702C01D0752C28D1C9
:101F40001498006801901498001D1490622C09D018
:101F50006F2C04D0702C08D0752C0CD108E0082010
:101F6000039009E00220039006E01020039003E0B4
:101F70000A20039000E000BF00BFCDF800A00022BF
:101F800001A909A8039BFFF79DFE814609A800EB64
:101F9000090807AB009649462020069A00F049F848
:101FA000B8F1000F3BD005E018F80109B0470798D9
:101FB000401C079098F800000028F5D12FE0FFE7BB
:101FC000632C0BD1149810F8041B1490C8B2049021
:101FD0000498B0470798401C079020E0732C19D153
:101FE000149880C81490D7B13846FEF789FB814613
:101FF00007AB009649462020069A00F01AF805E043
:1020000017F8010BB0470798401C07903878002854
:10201000F6D104E02046B0470798401C079000BF67
:102020006D1C2878041E7FF4F5AE079815B0BDE846
:10203000F08F2DE9F04780460D4616461C46DDF828
:1020400020902F4605E04046C8472068401C20608D
:102050007F1CB742F7DBBDE8F087000001B50748F9
:10206000007810B94FF0FF3008BD044948680122DC
:102070008B68694698470120F6E70000D8020020E7
:1020800010B50848006800B104E0A42206A10DA024
:1020900000F03EFE114B1968114B1868014B1A688D
:1020A000904710BDC40100202E2E5C6472697665D5
:1020B00072735C66736C5F666C6578636F6D6D2EB2
:1020C00063000000735F666C6578636F6D6D4972C5
:1020D0007148616E646C65725B305D00EC010020DC
:1020E000484F000000221E4B1A701E4B1A8000BF82
:1020F0001D4A126802F042024AB31C4A12787AB9A9
:1021000000BF194A2C321268D0B200BF184A194BCE
:102110001B88D054174A1288521C164B1A8005E0AF
:1021200000BF114A2C321268D0B200BF124A127896
:102130000AB9092102E00E4A127811110D4A1288DB
:10214000914204D101220C4B1A70084B1A7000BF47
:1021500000BF00BFBFF34F8F00BF00BF00BF70477D
:102160003E0000203A000020046E0840820000205B
:1021700034020020500000208100002010B50848E3
:10218000406800B104E0AC2206A10DA000F0C0FD43
:10219000114B5968114B5868014B5A68904710BD54
:1021A000C40100202E2E5C647269766572735C66D1
:1021B000736C5F666C6578636F6D6D2E63000000F5
:1021C000735F666C6578636F6D6D49727148616E9F
:1021D000646C65725B315D00EC010020484F0000CB
:1021E00010B50848806800B104E0B42206A10DA033
:1021F00000F08EFD114B9968114B9868014B9A685D
:10220000904710BDC40100202E2E5C647269766573
:1022100072735C66736C5F666C6578636F6D6D2E50
:1022200063000000735F666C6578636F6D6D497263
:102230007148616E646C65725B325D00EC01002078
:10224000484F000010B50848C06800B104E0BC2247
:1022500006A10DA000F05CFD114BD968114BD868A8
:10226000014BDA68904710BDC40100202E2E5C643B
:102270007269766572735C66736C5F666C657863B1
:102280006F6D6D2E63000000735F666C6578636F21
:102290006D6D49727148616E646C65725B335D008F
:1022A000EC010020484F000010B50848006900B15B
:1022B00004E0C42206A10DA000F02AFD114B19690B
:1022C000114B1869014B1A69904710BDC4010020D9
:1022D0002E2E5C647269766572735C66736C5F66E1
:1022E0006C6578636F6D6D2E63000000735F666CC4
:1022F0006578636F6D6D49727148616E646C65726B
:102300005B345D00EC010020484F000010B5084828
:10231000406900B104E0CD2206A10DA000F0F8FC58
:10232000114B5969114B5869014B5A69904710BDBF
:10233000C40100202E2E5C647269766572735C663F
:10234000736C5F666C6578636F6D6D2E6300000063
:10235000735F666C6578636F6D6D49727148616E0D
:10236000646C65725B355D00EC010020484F000035
:1023700010B50848806900B104E0D52206A10DA07F
:1023800000F0C6FC114B9969114B9869014B9A6991
:10239000904710BDC40100202E2E5C6472697665E2
:1023A00072735C66736C5F666C6578636F6D6D2EBF
:1023B00063000000735F666C6578636F6D6D4972D2
:1023C0007148616E646C65725B365D00EC010020E3
:1023D000484F000010B50848C06900B104E0DD2294
:1023E00006A10DA000F094FC114BD969114BD869DE
:1023F000014BDA69904710BDC40100202E2E5C64A9
:102400007269766572735C66736C5F666C6578631F
:102410006F6D6D2E63000000735F666C6578636F8F
:102420006D6D49727148616E646C65725B375D00F9
:10243000EC010020484F000010B50848006A00B1C8
:1024400004E0E52206A10DA000F062FC114B196A20
:10245000114B186A014B1A6A904710BDC401002045
:102460002E2E5C647269766572735C66736C5F664F
:102470006C6578636F6D6D2E63000000735F666C32
:102480006578636F6D6D49727148616E646C6572D9
:102490005B385D00EC010020484F000010B5084893
:1024A000406A00B104E0ED2206A10DA000F030FC6E
:1024B000114B596A114B586A014B5A6A904710BD2B
:1024C000C40100202E2E5C647269766572735C66AE
:1024D000736C5F666C6578636F6D6D2E63000000D2
:1024E000735F666C6578636F6D6D49727148616E7C
:1024F000646C65725B395D00EC010020484F0000A0
:1025000070B50546002407E0074850F82400A842AB
:1025100001D1204670BD641C0A2CF5DB612203A1A9
:1025200009A000F0F5FB0000484F00002E2E5C646F
:102530007269766572735C66736C5F666C657863EE
:102540006F6D6D2E6300000066616C7365000000A6
:1025500070B505460E462846FFF7D2FF0446002C0C
:1025600001DA042070BD0C4931F81400010A032976
:1025700005D201228240094B43F8212005E00122C7
:102580009307DA648240064B5A6100BF002231464D
:10259000284600F024F8E5E7704F000020020040D4
:1025A0000000044010B5024609B9012010BD012900
:1025B0000CDB04290ADCD2F8F80FCB1C01249C4068
:1025C000204008B10120F1E70020EFE7052904D100
:1025D000D2F8F80FC0F3C010E8E70020E6E770B5C6
:1025E00004460D46164629462046FFF7DBFF08B98C
:1025F000032070BDD4F8F80F00F0080038B1D4F80B
:10260000F80F00F00700A84201D00120F1E726B141
:1026100045F00800C4F8F80F01E0C4F8F85F0020A6
:10262000E7E730B51C785CB900F5005454F8214058
:1026300001259540AC4300F5005545F8214019E0CF
:102640005C7834B90124944000F50A5545F82140DE
:1026500005E00124944000F5085545F8214000F5B7
:10266000005454F82150012494402C4300F50055A7
:1026700045F8214030BD10B500EB4114A35410BD06
:1026800010B500EBC11444F8223010BD00F01F0259
:10269000012191404209920002F1E022C2F80011AA
:1026A0007047000001218140024A030A42F82310CA
:1026B000704700003006004001218140024A030AB1
:1026C00042F823107047000030060040012181408D
:1026D000024A030A42F82310704700002006004017
:1026E0004FF080600449086000BF0448406D00F06E
:1026F00020002028F9D17047300600400000024039
:1027000010B504461A48844218D20B21002000F06C
:1027100031F80C21012000F02DF80B21022000F0EF
:1027200029F80B21032000F025F80B21042000F0EC
:1027300021F80B21052000F01DF817E00D210020E5
:1027400000F018F80C21012000F014F80B210220F1
:1027500000F010F80D21032000F00CF80B210420EC
:1027600000F008F80B21052000F004F810BD00006F
:1027700000E1F50510B501F00F02024C44F82020ED
:1027800010BD0000000002402DE9F04105462E0C6E
:10279000AFB2012000FA07F4202F00D204E05D223E
:1027A0000DA113A000F0B4FA032E08D314488460DE
:1027B00000BF134800682040A042FAD00AE0114848
:1027C00040F8264000BF0F48403850F8260020400F
:1027D000A042F8D0BDE8F0812E2E5C647269766567
:1027E00072735C66736C5F72657365742E63000050
:1027F000626974506F73203C203332750000000012
:10280000000004404001004010B50446204600F09E
:1028100005F82046FFF7B8FF10BD00002DE9F04194
:1028200005462E0CAFB2012000FA07F4202F00D28B
:1028300004E03C220DA113A000F06AFA032E08D395
:102840001448446000BF1348006820400028FAD0B4
:102850000AE0114840F8264000BF0F48203850F8E1
:10286000260020400028F8D0BDE8F0812E2E5C64C0
:102870007269766572735C66736C5F72657365749A
:102880002E630000626974506F73203C20333275F0
:1028900000000000000004402001004010B500BF0F
:1028A000202080F31188BFF34F8FBFF36F8F00BFDD
:1028B00002F0DEF818B14FF080500449086000BF04
:1028C000002080F3118800BF10BD000004ED00E07F
:1028D0000848006840F47000064908600648054949
:1028E0008039086000200549086038200907C1F8D0
:1028F0002002704788ED00E0000000000403004063
:1029000010B5044604B104E0D32209A10EA000F0E2
:10291000FFF94FF4E1302060002020716071012048
:10292000A0710020E07120726072A072E07210BD90
:102930002E2E5C647269766572735C66736C5F756B
:10294000736172742E6300004E554C4C20213D2063
:10295000636F6E66696700002DE9F04104460D461D
:10296000174614B10DB107B104E0932233A139A089
:1029700000F0CEF90CB105B117B90420BDE8F08123
:1029800001212046FFF7E4FD06460EB13046F5E78B
:102990003A462046296800F0F7F806460EB1304660
:1029A000ECE7687AB8B104F56064206840F0011083
:1029B0002060A06820F47060A060A068A97A4FF43D
:1029C000706202EA01210843A060A06840F00100A3
:1029D000A060A4F56064287AB8B104F5606420684A
:1029E00040F002102060A06820F47020A060A06871
:1029F000E97A4FF4702202EA01410843A060A0681E
:102A000040F00200A060A4F560642879302101EA5A
:102A100000106979402202EA81110843A9790C2249
:102A200002EA81010843E9794FF4004202EAC13128
:102A30000843401C20600020A0E700002E2E5C64AC
:102A40007269766572735C66736C5F7573617274BC
:102A50002E6300002128284E554C4C203D3D20621D
:102A600061736529207C7C20284E554C4C203D3DCF
:102A700020636F6E66696729207C7C202830203DAA
:102A80003D20737263436C6F636B5F487A29290042
:102A90002DE9F04104460D4617460CB105B105E09D
:102AA0004FF4977229A12FA000F032F904B115B9A3
:102AB0000420BDE8F081D4F8000E00F0020008B94F
:102AC0000120F6E73EE000BFD4F8040E00F040001D
:102AD0000028F9D0A66806F4005030B1A06840F490
:102AE0000050A06041F24F60E3E706F4804030B14F
:102AF000A06840F48040A06041F25060D9E706F43D
:102B0000004030B1A06840F40040A06041F24E6047
:102B1000CFE7D4F8040E00F0020070B1D4F8000E34
:102B200040F40030C4F8000ED4F8040E40F0020067
:102B3000C4F8040E41F24D60BBE7D4F8300E2870A3
:102B40006D1C7F1E002FBED10020B2E72E2E5C64CC
:102B50007269766572735C66736C5F7573617274AB
:102B60002E6300002128284E554C4C203D3D20620C
:102B700061736529207C7C20284E554C4C203D3DBE
:102B800020646174612929002DE9FC5F06460C462A
:102B900017464FF0FF3001904FF00F0A834616B1F1
:102BA0000CB107B104E0E7221DA123A000F0B0F8AA
:102BB0000EB104B117B90420BDE8FC9F554621E0D1
:102BC000681C6043B7FBF0F0A0F10108B8F5803F46
:102BD00000D316E0681C08F101014843B7FBF0F987
:102BE0004C4502D2A9EB040001E0A4EB09000090DF
:102BF000DDE90001884203D200980190AA46C3464D
:102C000000BF6D1E082DDBD2BBF5803F02D341F221
:102C10005160D1E7C6F828A0C6F820B00020CBE765
:102C20002E2E5C647269766572735C66736C5F7578
:102C3000736172742E6300002128284E554C4C207D
:102C40003D3D206261736529207C7C202830203D39
:102C50003D2062617564726174655F427073292002
:102C60007C7C202830203D3D20737263436C6F6371
:102C70006B5F487A2929000070B504460D46164658
:102C80000CB105B105E04FF4887212A117A000F055
:102C90003FF804B105B970BDD4F8000E00F0010092
:102CA00000B9F8E70BE000BFD4F8040E00F02000F4
:102CB0000028F9D02878C4F8200E6D1C761E002E4E
:102CC000F1D100BFA06800F008000028FAD000BFD2
:102CD000E1E700002E2E5C647269766572735C66B3
:102CE000736C5F75736172742E6300002128284E27
:102CF000554C4C203D3D206261736529207C7C2031
:102D0000284E554C4C203D3D2064617461292900BA
:102D100004460D46164633462A46214602A0FFF7D2
:102D200051F800BF00BEFDE74153534552542045C2
:102D300052524F52202220257320223A2066696C7D
:102D4000652022257322204C696E6520222564228D
:102D5000200A000002E008C8121F08C1002AFAD1A8
:102D600070477047002001E001C1121F002AFBD10B
:102D70007047000086B00E20FEF7F8FA0F20FEF72D
:102D8000F5FA1020FEF7F2FA1120FEF7EFFA4FF4F1
:102D90008670FEF7B1FAFDF7DBFDFDF7F7FCFDF7F6
:102DA00073FDFDF727FDFDF7A9FD36A0FFF70AF833
:102DB000374800684FF47A72B0FBF2F1481EB0F168
:102DC000807F00D31BE0481E4FF0E0225061501777
:102DD0000722002807DA53071D0E2E4B00F00F04C0
:102DE000241F1D5503E053071C0E2B4B1C5400BF22
:102DF00000204FF0E02290610720106100BF03A87F
:102E0000FFF77EFD4FF4E130039001208DF81500AF
:102E10008DF814001920FEF7C9FB0446224603A9C9
:102E20001E48FFF799FD0A201D49086000BF0E20CB
:102E300010F1800F00D10CE000BF00F01F02012153
:102E400091404209920002F1E022C2F8001100BF55
:102E500000BF1448012100236422CDE9001012A113
:102E6000144801F0BFFD144800210B466422CDE94F
:102E7000001012A1144801F0B5FD01F047F900BFA0
:102E8000FEE700000D0A2043414E2D4644200A0073
:102E90000000002018ED00E000E400E000600840C1
:102EA000106E08401C000020546F75636820546148
:102EB000736B00003D420000200000204C43442082
:102EC0005461736B00000000B93B00002DE9F04134
:102ED00005460E461C4807681C480068001D00F0A7
:102EE000AFFD50B91948006890F82C1001208840B7
:102EF00017490968814316480160681C38B936B122
:102F000012480168091D134800F0F8FE1AE07C1908
:102F10000E4800684460BC4207D20C480168091D95
:102F20000D48006800F0D0FE0CE008480168091D5B
:102F30000A48006800F0C8FE09480068844201D2CF
:102F400007480460BDE8F0816401002050010020C2
:102F500068010020FC0300205801002054010020DB
:102F60008001002010B5044600F0D4FE244800681B
:102F7000401C234908602348006840B92148046088
:102F80000846006801280DD100F0E8F90AE01E4863
:102F9000006838B91B480068C06AE16A884201D8F5
:102FA0001848046019480068401C18490860084621
:102FB0000068A06494F82C10012088401449096826
:102FC000084313490860E16A01EB8101114A02EBF1
:102FD0008100211D00F092FE00F0C6FE0A48006844
:102FE00068B108480068C06AE16A884207D24FF0B9
:102FF000805009490860BFF34F8FBFF36F8F10BD3A
:1030000060010020500100206C0100207C010020A4
:10301000680100204803002004ED00E010B500F036
:1030200079FE10480068D0B90F4800F03DFE0F4807
:1030300000F03AFE0C480E4908600C480D49086043
:10304000002210210A2001F0DDF906490860084637
:10305000006820B108A10348006800F03BFF00F0C1
:1030600083FE10BD940100201004002024040020E1
:103070008C01002090010020546D7251000000006E
:1030800070B523E001F08CF81348006808B90120FE
:1030900000E00020054601F031FEBDB900F03AFE27
:1030A0000D48C068C468201D00F0CAFC0B480068C9
:1030B000401E0A4908600A480068401E0849086026
:1030C00000F052FE204600F060F800BF044800689F
:1030D0000028D7D170BD0000E80300206001002067
:1030E0005C01002070B504460D46206C70B1216C67
:1030F000E0680844E0606168E068884201D32068C5
:10310000E0602846226CE168FDF7D6FA70BD2DE933
:10311000F04104460F4615464FF00008A66B206CA0
:1031200040B9206860BB606801F038FD804600202F
:10313000606025E07DB93946226CA068FDF7BCFAD5
:10314000216CA0680844A060D4E90110884217D31C
:103150002068A06014E03946226CE068FDF7ACFA04
:10316000216CE068401AE0602168E068884203D280
:10317000216C6068401AE060022D01D106B1761E14
:10318000701CA0634046BDE8F08110B50446206B7A
:1031900000F008FE204600F005FE10BD0146084A7A
:1031A000126812680AB9012200E000220A600A6867
:1031B00022B9034A1268D268106800E00020704704
:1031C0008C01002030B54FF42053174800F007045D
:1031D0002CB1C01D20F00700134C041B1B1B024622
:1031E000124C22600024114D6C60D018083820F079
:1031F00007000F4C206000240D4D2D686C600C4DB5
:103200002D682C601146441A4C60094C24680C60EF
:10321000084D4C682C60084D4C682C604FF0004401
:10322000064D2C6030BD000038040020A0010020B5
:10323000A8010020B0010020AC010020B401002052
:1032400000BFFFF71DFF064800680128F9D94FF0BD
:10325000805004490860BFF34F8FBFF36F8FF0E7D2
:103260004803002004ED00E02DE9F04106460D463C
:1032700017469846069C0DB9246000E02760E66377
:1032800025640121204601F0CBF984F84C80BDE88B
:10329000F0812DE9F05F82460F4690469B460A9EDC
:1032A0000C9C4FEA8801A522206BFDF717FAA8F1C4
:1032B0000100216B01EB800929F0070909F00700E3
:1032C00008B9012000E0002050B900BF202080F3A1
:1032D0001188BFF34F8FBFF36F8F00BF00BFFEE7B2
:1032E000002507E0795D04F134004155785D00B9AF
:1032F00002E06D1C142DF5D300BF002147200155BD
:10330000052E00D30426E662266500206065201D98
:1033100000F0D7FC04F1180000F0D3FC2461C6F1E2
:103320000500A0616462002505E0002104F1580059
:1033300040F825106D1C052DF7D30020E06684F8B9
:1033400070005A465146484600F050FB20600B98EA
:1033500008B10B980460BDE8F09F000010B5002490
:1033600007E004EB84010F4A02EB810000F09CFCB3
:10337000641C052CF5D30C4800F096FC0B4800F0BB
:1033800093FC0B4800F090FC0A4800F08DFC0A48C2
:1033900000F08AFC044809490860044808490860AC
:1033A00010BD000048030020AC030020C003002033
:1033B000D4030020E8030020FC0300205401002077
:1033C0005801002010B50146164800E00068036867
:1033D0008B42FBD30246436813448B4204D14368BB
:1033E0004C682344436001460A464B681344046812
:1033F000A34211D10C4C03682468A34208D04B6847
:103400000468646823444B6003681B680B6005E034
:10341000054B1B680B6001E003680B60884200D01D
:10342000016010BDA0010020A80100202DE9F0419D
:1034300004460D4616461F464FF00008656024619D
:10344000B5420CD8F01BA169884202D34FF00108A5
:1034500011E0211D0948006800F036FC0BE0BE4277
:1034600004D2BD4202D34FF0010804E0211D0448FC
:10347000006800F029FC4046BDE8F0819001002082
:103480008C01002070B5054600F044FCA86B08B91B
:10349000012400E0002400F067FC204670BD70B5F8
:1034A000054600F037FCA86BE96B884201D1012486
:1034B00000E0002400F058FC204670BDF8B5054639
:1034C0000F4616480068C068C468201D00F0B8FAAE
:1034D000E06901281DD1A06941192B463A462046D2
:1034E000FFF7A4FFA8B1002003462A46014600903A
:1034F000204601F0AFFC064656B900BF202080F3FD
:103500001188BFF34F8FBFF36F8F00BF00BFFEE77F
:1035100000BF2046616A8847F8BD00008C0100208A
:10352000F0B587B07FE00398002811DA04AE56B9F1
:1035300000BF202080F31188BFF34F8FBFF36F8F40
:1035400000BF00BFFEE7D6E90020B168904700BF8A
:103550000398002867DB059C606908B9012000E03A
:10356000002010B9201D00F06BFA02A800F0BEF890
:10357000054603980A2854D2DFE800F00905073110
:10358000334F0608323400BF00BF00BF00BF0498AD
:10359000A269811803462A462046FFF747FFE8B193
:1035A0002046616A8847E069012817D10020009011
:1035B0000498A169421800231946204601F04AFCEC
:1035C000074657B900BF202080F31188BFF34F8F03
:1035D000BFF36F8F00BF00BFFEE700BF22E000BF58
:1035E00020E000BF0498A061A06908B1012000E0BC
:1035F000002050B900BF202080F31188BFF34F8F07
:10360000BFF36F8F00BF00BFFEE7A06941192B46D3
:103610002A462046FFF70AFF04E0204600F0C2FBDE
:1036200000E000BF00BF00231A4603A90448006859
:1036300000F014FF00287FF476AF07B0F0BD000063
:1036400094010020F8B505460C4600F0A9FD684637
:1036500000F04CF80646009820BB44B9B54206D8A5
:1036600001F04CFB31462846FFF728FF1CE03CB137
:103670000E480068006808B9012000E000200446F8
:10368000A91B22460A48006800F03AFC01F036FB0C
:1036900050B94FF0805007490860BFF34F8FBFF318
:1036A0006F8F01E001F02AFBF8BD000090010020BF
:1036B0009401002004ED00E00A490968096809B98D
:1036C000012100E0002121B14FF0FF31064A1160D5
:1036D00006E004490968C968C868034A416811607E
:1036E00070470000540100208001002070B504469E
:1036F00001F0B8F9054607480068854204D200F099
:103700000BF80120206001E00020206001480560E6
:10371000284670BD9C0100202DE9F84332E0244882
:103720000068C068056822480068C068C468201D39
:1037300000F086F92046616A8847E069012821D1B6
:10374000A0694619AE4207D966602461211D184858
:10375000006800F0B9FA15E0002003462A46014649
:103760000090204601F076FB074657B900BF2020A5
:1037700080F31188BFF34F8FBFF36F8F00BF00BF7F
:10378000FEE700BF0A480068006808B9012000E0B1
:1037900000200028C3D00648D0F800800548006803
:1037A000034908600348C0F80080BDE8F8830000C2
:1037B0008C010020900100200E480068401C08B9D0
:1037C000012000E0002050B900BF202080F31188C4
:1037D000BFF34F8FBFF36F8F00BF00BFFEE700BF87
:1037E000202080F31188BFF34F8FBFF36F8F00BF8E
:1037F00000BFFEE7B801002008B500BF6846FFF72C
:10380000CDFC044620460099FFF71CFFFFF788FE19
:10381000F4E770B5044600F07DFA94F9455010E0E5
:10382000606A08B9012000E0002038B904F12400E2
:1038300001F018FA18B100F0B7FB00E003E0681ED1
:1038400045B2002DECDC00BFFF2084F8450000F0FD
:103850008BFA00F05FFA94F9445010E0206908B93F
:10386000012000E0002048B904F1100001F0FAF94D
:1038700008B100F099FB681E45B200E001E0002DA0
:10388000ECDC00BFFF2084F8440000F06DFA70BD4E
:103890002DE9F04104464FF0000800F081FC464855
:1038A000006808B9FFF78EFC4448006820400028F3
:1038B0006BD1D4B1083404F00700B0B104F00700B4
:1038C000C0F10800044404F0070008B9012000E03A
:1038D000002050B900BF202080F31188BFF34F8F24
:1038E000BFF36F8F00BF00BFFEE7002C4DD0344800
:1038F0000068844249D8334E3046056801E02E46C0
:103900002D686868A04202D228680028F7D12A48AA
:103910000068854239D0306800F1080828683060B6
:103920006868001B102819D92F1907F0070008B97B
:10393000012000E0002050B900BF202080F3118852
:10394000BFF34F8FBFF36F8F00BF00BFFEE7686804
:10395000001B78606C603846FFF734FD18496868D2
:103960000968081A16490860084600681649096877
:10397000884203D212480068134908600F496868FA
:103980000968084368600020286001F0B7F908F072
:10399000070008B9012000E0002050B900BF202036
:1039A00080F31188BFF34F8FBFF36F8F00BF00BF4D
:1039B000FEE74046BDE8F081A8010020B4010020E8
:1039C000AC010020A0010020B001002006480068E2
:1039D00030B10549096801F15400496D491C016085
:1039E000014800687047000050010020001F4FF0A0
:1039F00080730360001F21F001030360001F054B6B
:103A0000036014380260001F6FF002030360203867
:103A100070470000B937000010B502460B46002180
:103A200008E0505C054C645CA04201D0002010BD51
:103A3000481CC1B29942F4DB0120F8E70C010020D8
:103A400001460A69D1E901309860D1E90103586063
:103A50005068884201D18868506000200861106871
:103A6000401E10601068704770B504460D460E2267
:103A700003490448FFF700F900200349087070BDAE
:103A80003A010020006008404D01002010B50446B6
:103A90000021204600F018F80A480078012806D0D6
:103AA000022809D0032808D0042808D106E0002104
:103AB0002046FFF7D9FF03E002E001E000E000BF8D
:103AC00000BF10BD4D01002070B504460D462D48C5
:103AD000007860B908212046FFF79EFF2949087049
:103AE00008460078012805D12749087002E0002027
:103AF00025490870207800F00F00032840D10120EC
:103B000022490870607800F00F0021490870A07801
:103B10000006E17800EB0140217900EB012061799A
:103B200008441C491A4A127841F82200A0781A4920
:103B30000870E0784870207988706079C8703DB16D
:103B40001448134A127850F8221014A0FEF73AF9DC
:103B500010480F49097850F82100B0F5006F0FD2D6
:103B60000C480B49097830F82100C0F30A004FF0E7
:103B7000605141EA0042064801780E48FDF725FAF7
:103B800070BD00001A0100204D0100201C01002022
:103B900048010020E8020020490100200D0A2053BE
:103BA0006572766963655F4944202B202564200A8D
:103BB0000000000000D0094000BF34480088401CCD
:103BC000324908803249601C51F820103148406861
:103BD00061F31C002F4948600A4600212E48FDF77A
:103BE00035F920BB00202D4908700EE02948083027
:103BF0002A490978415C29480078801D284A1154D7
:103C000026480078401C2549087024480078082878
:103C1000ECDB244800782249887022484078C8703C
:103C20002048807808711F48C078487100BF194A41
:103C300001211948FDF70AF920BB00201749087037
:103C40000EE01448083015490978415C13480078A3
:103C5000801D134A115411480078401C0F49087008
:103C60000E4800780828ECDB0E4800780C49887074
:103C70000C484078C8700B48807808710948C078B3
:103C8000487100BF0A2000F061F996E74600002065
:103C9000E80200209002002000D0094056000020D9
:103CA000650000204901002000F1080141604FF04B
:103CB000FF31816000F10801C160016100210160F4
:103CC000704700210161704710B502460B685C1C0B
:103CD0000CB9106907E002F1080000E04068446890
:103CE00024689C42FAD944684C604C68A1608860A2
:103CF00041600A611468641C146010BD42684A6027
:103D000093688B60936859609160086103685B1CDD
:103D10000360704700BF202080F31188BFF34F8FEE
:103D2000BFF36F8F00BF0E480068401C0C4908604D
:103D300008460068012812D10A480068C0B208B9D4
:103D4000012000E0002050B900BF202080F311883E
:103D5000BFF34F8FBFF36F8F00BF00BFFEE7704709
:103D6000B801002004ED00E00D48006850B900BF24
:103D7000202080F31188BFF34F8FBFF36F8F00BFF8
:103D800000BFFEE706480068401E05490860084677
:103D9000006820B9002080F3118800BF00BF704781
:103DA000B801002070B506463546002E3FD0083DCC
:103DB0002C461F4960680968084008B1012000E0EE
:103DC000002050B900BF202080F31188BFF34F8F2F
:103DD000BFF36F8F00BF00BFFEE7206808B9012066
:103DE00000E0002050B900BF202080F31188BFF30D
:103DF0004F8FBFF36F8F00BF00BFFEE70C496068B5
:103E00000968084098B1206888B90949606809685C
:103E10008843606000F0C4F9064960680968084496
:103E2000044908602046FFF7CDFA00F067FF70BD37
:103E3000B4010020AC010020074800684FF47A71FB
:103E4000B0FBF1F0401E4FF0E02148610020886196
:103E500007200861704700000000002070B5FCF7E3
:103E600031FB0446102C16D304F1E02090F8F053F7
:103E700015480078854201DB012000E0002050B9A0
:103E800000BF202080F31188BFF34F8FBFF36F8FE7
:103E900000BF00BFFEE70D48006800F4E0600C4979
:103EA0000968884201D8012000E0002050B900BF15
:103EB000202080F31188BFF34F8FBFF36F8F00BFB7
:103EC00000BFFEE770BD0000BC0100200CED00E06B
:103ED000C0010020024600200BE0084B53F83030B0
:103EE00033B9064B43F8301003EBC0035A6002E0CD
:103EF000401C0828F1D300BF7047000008030020D1
:103F00002DE9F04105460E4617462C46FFF702FF05
:103F100094F94400401C10B9002084F8440094F93E
:103F20004500401C10B9002084F84500FFF71CFF35
:103F3000A06B28B93A46314604F1240000F056F847
:103F40002046FFF766FCBDE8F081000070B504462E
:103F50000025D4B11248006808B9012000E0002013
:103F600050B900BF202080F31188BFF34F8FBFF3FB
:103F70006F8F00BF00BFFEE700F012F9002120465E
:103F8000FEF7A4FF00F0BAFE05463DB94FF08050A1
:103F900004490860BFF34F8FBFF36F8F70BD0000FF
:103FA0008801002004ED00E001200149086070470D
:103FB0007401002070B504460D4654B900BF20209E
:103FC00080F31188BFF34F8FBFF36F8F00BF00BF27
:103FD000FEE70548016818312046FFF775FE01210C
:103FE0002846FEF773FF70BD5001002070B50546EE
:103FF0000E46144655B900BF202080F31188BFF348
:104000004F8FBFF36F8F00BF00BFFEE70648016808
:1040100018312846FFF772FE0CB14FF0FF362146EB
:104020003046FEF753FF70BD5001002070B50546C5
:104030002C46002D4BD02649E06A0968C96A88429F
:1040400045D2A06900F0004028B921480068C06A44
:10405000C0F10500A061E16A01EB81011D4A02EB9C
:1040600081016069884201D1012000E0002050B345
:10407000201DFFF7E5FC78B9E06A00EB80001549E8
:1040800051F8200040B994F82C10012088401249C2
:1040900009688143104801600D480068C06AE06209
:1040A00094F82C10012088400B49096808430A49FC
:1040B0000860E16A01EB8101064A02EB8100211DE3
:1040C000FFF71CFE03E002480068C06AE06270BDB2
:1040D00050010020480300206801002050B900BFB3
:1040E000202181F31188BFF34F8FBFF36F8F00BF83
:1040F00000BFFEE7034909680160034909684160A0
:104100007047000078010020640100201CB51D48A4
:1041100000210B465A22CDE900101BA11C4800F0DB
:1041200061FC0446012C02D100F06AFE0446012C19
:1041300015D100BF202080F31188BFF34F8FBFF34C
:104140006F8F00BF4FF0FF30124908600120124905
:10415000086000201149086000F0B6F810E0601C0B
:1041600008B1012000E0002050B900BF202080F3FA
:104170001188BFF34F8FBFF36F8F00BF00BFFEE703
:104180001CBD00008401002049444C450000000093
:1041900041320000800100206C01002064010020F9
:1041A00002480068401C01490860704788010020EF
:1041B0001D48006818B101201C49086032E0002049
:1041C0001A4908601A480068B0FA80F0C0F11F016F
:1041D00001EB8100174A52F8200008B1012000E0ED
:1041E000002050B900BF202080F31188BFF34F8F0B
:1041F000BFF36F8F00BF00BFFEE701EB81020D4BE5
:1042000003EB820042685268426000F10802436892
:10421000934202D14268526842604268D268064BBB
:104220001A6000BF70470000880100207401002060
:1042300068010020480300205001002000BF1B48F7
:1042400000880A2190FBF1F201FB12001849088056
:104250000846008840B9174A0220042102F50C5391
:1042600043F8201000BF00BF13480078012803D096
:1042700012480078012810D11148FFF707FC0020F0
:104280000E4908700F490880002404E000200C4902
:104290000855601CC4B20E2CF8DB04480088401C92
:1042A000024908806420FFF751FEC8E75200002051
:1042B0005400002000C0084081000020820000203F
:1042C00034020020500000201CB5474800684749D0
:1042D000884201D0012000E0002050B900BF20201A
:1042E00080F31188BFF34F8FBFF36F8F00BF00BF04
:1042F000FEE73D4800683D49491E884201D0012043
:1043000000E0002050B900BF202080F31188BFF3E7
:104310004F8FBFF36F8F00BF00BFFEE734490846E1
:1043200000780190FF200A4610700846007800903F
:104330009DF8000000F0F0009DF80020904201D1AF
:10434000012000E0002050B900BF202080F3118838
:10435000BFF34F8FBFF36F8F00BF00BFFEE79DF825
:10436000000000F02000234A10700720224A10604D
:1043700009E021480068401E1F4A10609DF80000B7
:104380004006000E00909DF8000000F0800080289C
:10439000EFD0194800680002174A106010460088E4
:1043A00000F4E0601060124A019810700E4820304E
:1043B000006840F470000C4920310860084600682D
:1043C00040F070400860FFF737FD00200B4908609F
:1043D000FCF740F80A48006840F04040084908608F
:1043E000FCF728F800201CBD00ED00E071C20F4171
:1043F00000E400E0BC010020C0010020B801002062
:1044000034EF00E02DE9F84305460E4690460DB125
:10441000012000E0002050B900BF202080F3118867
:10442000BFF34F8FBFF36F8F00BF00BFFEE70EB922
:10443000002701E005FB06F707F15000FFF728FA17
:10444000044644B104F1500943464A4631462846E1
:104450000094FEF709FF2046BDE8F8832DE9FF47E9
:1044600082B005460E461F464FF0000A2C4654B94E
:1044700000BF202080F31188BFF34F8FBFF36F8FF1
:1044800000BF00BFFEE70EB9206C08B9012000E0B4
:10449000002050B900BF202080F31188BFF34F8F58
:1044A000BFF36F8F00BF00BFFEE700F0CBFA08B983
:1044B000049808B9012000E0002050B900BF202076
:1044C00080F31188BFF34F8FBFF36F8F00BF00BF22
:1044D000FEE700BFFFF71EFCD4F83890B9F1000FDB
:1044E0003DD0D4F80C8031462046FEF7FBFDDFB905
:1044F000A9F10100A063206810B9FFF767FA6060B6
:10450000206908B9012000E0002010BB04F1100070
:1045100000F0A8FBE8B14FF0805040490860BFF3BD
:104520004F8FBFF36F8F14E0C4F80C80606A08B936
:10453000012000E0002060B904F1240000F092FBAB
:1045400038B14FF0805035490860BFF34F8FBFF34B
:104550006F8FFFF709FC012006B0BDE8F0870498D3
:1045600018B9FFF701FC0020F6E7BAF1000F04D1FB
:104570006846FFF7B3FD4FF0010AFFF7F5FBFFF7C1
:104580000FFEFFF7C7FB94F94400401C10B9002050
:1045900084F8440094F94500401C10B9002084F8C8
:1045A0004500FFF7E1FB04A9684600F0D5F940BBE0
:1045B0002046FEF767FFF0B1206830B9FFF7AAFB8D
:1045C0006068FFF733FDFFF7CFFB04F12400049987
:1045D000FFF7F0FC2046FFF71CF900F08FFB0028E6
:1045E0007FF478AF4FF080500C490860BFF34F8FD5
:1045F000BFF36F8F6EE72046FFF70BF900F07EFBED
:1046000068E72046FFF705F900F078FB2046FEF743
:1046100039FF0028EED000209EE7000004ED00E006
:1046200070B505460E462C4654B900BF202080F3D5
:104630001188BFF34F8FBFF36F8F00BF00BFFEE73E
:10464000FFF768FBD4E90F12206801FB02006060ED
:104650000020A0632068A060E06B401E226C2168EF
:1046600000FB0210E060FF2084F8440084F845005D
:104670009EB9206908B9012000E00020A8B904F122
:10468000100000F0EFFA80B14FF080500949086047
:10469000BFF34F8FBFF36F8F07E004F11000FFF7F8
:1046A00003FB04F12400FFF7FFFAFFF75DFB012095
:1046B00070BD000004ED00E02DE9FF4383B0064625
:1046C00088461D464FF00009344654B900BF2020EB
:1046D00080F31188BFF34F8FBFF36F8F00BF00BF10
:1046E000FEE7B8F1000F01D1206C08B9012000E00D
:1046F000002050B900BF202080F31188BFF34F8FF6
:10470000BFF36F8F00BF00BFFEE7022D02D1E06B49
:10471000012801D1012000E0002050B900BF202075
:1047200080F31188BFF34F8FBFF36F8F00BF00BFBF
:10473000FEE700F087F908B9059808B9012000E004
:10474000002050B900BF202080F31188BFF34F8FA5
:10475000BFF36F8F00BF00BFFEE700BFFFF7DAFABD
:10476000A06BE16B884201D3022D28D12A46414635
:104770002046FEF7CCFC0746606A08B9012000E03D
:10478000002068B904F1240000F06CFA88B14FF001
:10479000805032490860BFF34F8FBFF36F8F08E03E
:1047A0003FB14FF080502D490860BFF34F8FBFF3EA
:1047B0006F8FFFF7D9FA012007B0BDE8F0830598A5
:1047C00018B9FFF7D1FA0020F6E7B9F1000F04D1CC
:1047D00001A8FFF783FC4FF00109FFF7C5FAFFF7C7
:1047E000DFFCFFF797FA94F94400401C10B9002051
:1047F00084F8440094F94500401C10B9002084F866
:104800004500FFF7B1FA05A901A800F0A5F8F0B935
:104810002046FEF744FEA0B104F110000599FFF711
:10482000C9FB2046FEF7F5FF00F068FA002895D195
:104830004FF0805009490860BFF34F8FBFF36F8F6F
:104840008CE72046FEF7E5FF00F058FA86E72046A1
:10485000FEF7DFFF00F052FA0020ADE704ED00E0C4
:104860002DE9F05F07468A4690461E463C4654B9FD
:1048700000BF202080F31188BFF34F8FBFF36F8FED
:1048800000BF00BFFEE7BAF1000F01D1206C08B9EC
:10489000012000E0002050B900BF202080F31188E3
:1048A000BFF34F8FBFF36F8F00BF00BFFEE7022E35
:1048B00002D1E06B012801D1012000E0002050B9B5
:1048C00000BF202080F31188BFF34F8FBFF36F8F9D
:1048D00000BF00BFFEE7FFF7C1FA00BF2021EFF3E2
:1048E000118081F31188BFF34F8FBFF36F8F00BF2B
:1048F0000546A06BE16B884201D3022E23D194F9C7
:1049000045B0324651462046FEF701FC0BF101004E
:1049100088B9606A08B9012000E0002080B904F17C
:10492000240000F09FF958B1B8F1000F08D0012021
:10493000C8F8000004E00BF1010040B284F8450023
:104940004FF0010901E04FF0000900BF85F3118825
:1049500000BF4846BDE8F09F70B504460D4654B907
:1049600000BF202080F31188BFF34F8FBFF36F8FFC
:1049700000BF00BFFEE755B900BF202080F31188BB
:10498000BFF34F8FBFF36F8F00BF00BFFEE7FFF78E
:10499000C1F9124803682868401C08B9002619E0CC
:1049A0000F4920680968884204D06068984201D89D
:1049B00001260FE06068181A2968884209D2286821
:1049C0006168591A401A28602046FFF787FB0026C5
:1049D00000E00126FFF7C8F9304670BD64010020F1
:1049E000780100202DE9FF4F85B0804689461746A3
:1049F000DDE912ABB800FEF74BFF064656B1742056
:104A0000FEF746FF04460CB1266304E03046FFF78C
:104A1000C9F900E000247CB10020CDE900ABCDE96C
:104A200002403A4649464046089BFEF732FC204683
:104A3000FEF798FA012501E04FF0FF35284609B04E
:104A4000BDE8F08F0549096809B9012005E004496E
:104A5000096809B9022000E0002070476C010020BD
:104A600088010020014908687047000064010020A7
:104A70002DE9F0414FF000083D48006800286AD158
:104A80003C480068451C3B48056015BB3A48006837
:104A9000006808B9012000E0002050B900BF2020C4
:104AA00080F31188BFF34F8FBFF36F8F00BF00BF3C
:104AB000FEE731480768314800682F4908602F48F1
:104AC00007602F480068401C2D490860FEF7F4FD80
:104AD00000BF2C48006885423CD300BF26480068D0
:104AE000006808B9012000E0002020B14FF0FF303D
:104AF000244908602DE020480068C068C4686668E2
:104B0000B54202D21F48066023E0201DFEF798FF41
:104B1000A06A18B104F11800FEF792FF94F82C1067
:104B20000120884018490968084317490860E16A6C
:104B300001EB8101154A02EB8100211DFFF7DEF830
:104B40001349E06A0968C96A8842C7D34FF001086F
:104B5000C4E700BF04E00F480068401C0D4908602E
:104B60000D48006808B14FF001084046BDE8F081EB
:104B70008801002064010020540100205801002019
:104B800078010020800100206801002048030020F7
:104B900050010020700100207401002070B505460E
:104BA0002C460026002D55D02B480068844201D1A8
:104BB000012000E0002050B900BF202080F31188C0
:104BC000BFF34F8FBFF36F8F00BF00BFFEE7606D75
:104BD00050B900BF202080F31188BFF34F8FBFF37F
:104BE0006F8F00BF00BFFEE7606D401E6065216DE6
:104BF000E06A88422ED0606D60BB201DFEF720FF6A
:104C000078B9E06A00EB8000144951F8200040B9FF
:104C100094F82C10012088401149096881431048FC
:104C20000160206DE062E06AC0F10500A06194F8C7
:104C30002C10012088400A49096808430849086087
:104C4000E16A01EB8101054A02EB8100211DFFF7BA
:104C500055F80126304670BD500100204803002061
:104C60006801002070B50646F068C46854B900BFFA
:104C7000202080F31188BFF34F8FBFF36F8F00BFE9
:104C800000BFFEE704F11800FEF7DAFE15480068E1
:104C9000A8B9201DFEF7D4FE94F82C1001208840FE
:104CA00011490968084310490860E16A01EB810174
:104CB0000E4A02EB8100211DFFF720F804E004F109
:104CC00018010B48FFF71AF80A49E06A0968C96A2F
:104CD000884204D9012501200749086000E0002529
:104CE000284670BD8801002068010020480300208C
:104CF000D4030020500100207401002070B500246E
:104D000000263648006850B900BF202080F3118883
:104D1000BFF34F8FBFF36F8F00BF00BFFEE7FEF7FB
:104D2000F9FF2E480068401E2C49086008460068BC
:104D300000284FD12A48006800284BD024E0294899
:104D4000C068C46804F11800FEF77AFE201DFEF763
:104D500077FE94F82C100120884023490968084305
:104D600021490860E16A01EB8101204A02EB8100E0
:104D7000211DFEF7C3FF1E49E06A0968C96A88421F
:104D800002D301201B4908601648006808B90120B9
:104D900000E000200028D2D00CB1FEF78DFC1648B0
:104DA000056865B100BFFFF763FE10B1012011492E
:104DB00008606D1E002DF6D100200F4908600D48D7
:104DC000006838B1012630070C490860BFF34F8FE7
:104DD000BFF36F8FFEF7C8FF304670BD880100201B
:104DE00060010020D4030020680100204803002057
:104DF00050010020740100207001002004ED00E04B
:104E00001CB50024FEF70AF90D48006850B10D48A2
:104E100002210023B422CDE900100BA10C48FFF7BA
:104E2000E1FD044654B900BF202080F31188BFF390
:104E30004F8FBFF36F8F00BF00BFFEE720461CBD42
:104E40009401002098010020546D72205376630075
:104E5000F93700002DE9FF4704460D4616461F4668
:104E6000DDF830804FF0000954B900BF202080F3F6
:104E70001188BFF34F8FBFF36F8F00BF00BFFEE7F6
:104E80001448006810B3009501960294062D15DAB7
:104E9000FFF7D8FD022808D10023424669460D4895
:104EA0000068FFF709FC814610E000231A466946B6
:104EB00008480068FFF700FC814607E000233A46F7
:104EC000694604480068FFF7CBFC8146484604B0B9
:104ED000BDE8F0879401002000D0094000E00940BF
:104EE00000000000001BB7000000000000080C0FCD
:104EF0001214181A1C1E2022242628292A2C2D2E92
:104F000030313234353638393A3B3C3D3F010300CD
:104F100000000000001BB7003F010300000000007C
:104F2000001BB7003F01030000000000001BB7009A
:104F30003F01030000000000001BB7000E0F10111E
:104F40001213141528290000006008400070084062
:104F5000008008400090084000A008400060094020
:104F600000700940008009400090094000A00940FD
:104F70000B010C010D010E010F01100111011201B5
:104F80000E020F02B07F000002020000620000006B
:104F9000AA6A00000095BA0A0000000003000000A1
:104FA000004200000203000062000000FF1F00003A
:104FB0000095BA0A0000000003000000DC4F00006A
:104FC00000000020C40100003407000084500000ED
:104FD000C4010020742A0000642D00001103541B3A
:104FE000B72011112233445566778899AABBCCDDCE
:104FF000EEA1818304C9E3A102183E557361727466
:105000002066756E6374696F6E616C204150492033
:10501000696E74657272757074206578616D706CFC
:10502000650D0A426F617264207265636569766519
:10503000732063686172616326380C73207468653D
:105040006E2073656E640B180C6D206F75740D0AFD
:105050004E6F7720381C6173654D177075743A0D6B
:105060000A4B2120010312222012011F54544D3AF1
:105070004F4B2791BBA101B9B90E792E39E50170CB
:045080001AAA0181E6
:0400000500000401F2
:00000001FF
